:020000040800F2
:10000000F0090020A5010008AD010008AF010008BB
:1000100000000000000000000000000000000000E0
:10002000000000000000000000000000B101000816
:100030000000000000000000B3010008B501000846
:10004000B7010008B7010008B7010008B7010008B0
:10005000B7010008B7010008B7010008B7010008A0
:10006000B7010008B7010008B7010008B701000890
:10007000B7010008B7010008B7010008B701000880
:10008000B7010008B701000800000000B701000830
:10009000B7010008410F0008B7010008B7010008C8
:1000A000B7010008B7010008B7010008B701000850
:1000B0004711000800000000B70100080000000020
:1000C00000F002F800F03EF80CA030C80838241800
:1000D0002D18A246671EAB4654465D46AC4201D180
:1000E00000F030F87E460F3E0FCCB6460126334274
:1000F00000D0FB1AA246AB46334318475417000002
:1001000074170000103A02D378C878C1FAD85207A1
:1001100001D330C830C101D504680C6070470000BD
:100120000023002400250026103A01D378C1FBD813
:10013000520700D330C100D50B6070471FB51FBDFB
:1001400010B510BD00F03BF91146FFF7F7FF01F0C5
:10015000A9F900F053F903B4FFF7F2FF03BC00F074
:1001600057F9000070B505460C46164602E00FCC64
:100170000FC5103E102EFAD2082E02D303CC03C5B1
:10018000083E042E07D301CC01C5361F03E02178B9
:100190002970641C6D1C761EF9D270BD40BA704780
:1001A00040BA70470748804707480047FEE7FEE728
:1001B000FEE7FEE7FEE7FEE704480549054A064B71
:1001C00070470000810E0008C1000008F003002005
:1001D000F0090020F0050020F0050020F8B5042A01
:1001E0002CD3830712D00B78491C0370401C521E7D
:1001F00083070BD00B78491C0370401C521E8307E9
:1002000004D00B78491C0370401C521E8B079B0FB7
:1002100005D0C91ADF002023DE1B08C90AE0FFF75A
:10022000A1FFF8BD1D4608C9FD401C46B4402C4343
:1002300010C0121F042AF5D2F308C91A521EF0D4B6
:100240000B78491C0370401C521EEAD40B78491CE1
:100250000370401C012AE4D409780170F8BD002223
:1002600003098B422CD3030A8B4211D300239C46F3
:100270004EE003460B433CD4002243088B4231D36B
:1002800003098B421CD3030A8B4201D394463FE0FF
:10029000C3098B4201D3CB01C01A524183098B425F
:1002A00001D38B01C01A524143098B4201D34B0148
:1002B000C01A524103098B4201D30B01C01A5241AB
:1002C000C3088B4201D3CB00C01A524183088B4232
:1002D00001D38B00C01A524143088B4201D34B001B
:1002E000C01A5241411A00D201465241104670478D
:1002F0005DE0CA0F00D04942031000D34042534092
:1003000000229C4603098B422DD3030A8B4212D351
:10031000FC22890112BA030A8B420CD38901921183
:100320008B4208D3890192118B4204D389013AD0C0
:10033000921100E08909C3098B4201D3CB01C01A95
:10034000524183098B4201D38B01C01A52414309A8
:100350008B4201D34B01C01A524103098B4201D396
:100360000B01C01A5241C3088B4201D3CB00C01A03
:10037000524183088B4201D38B00C01A5241D9D21B
:1003800043088B4201D34B00C01A5241411A00D29C
:100390000146634652415B10104601D34042002B98
:1003A00000D54942704763465B1000D3404201B517
:1003B0000020C046C04602BD704770477047754672
:1003C00000F022F8AE46050069465346C008C0005A
:1003D000854618B020B5FFF7EFFE60BC002749083E
:1003E000B6460026C0C5C0C5C0C5C0C5C0C5C0C5CD
:1003F000C0C5C0C5403D49008D4670470446C04653
:10040000C0462046FFF7A7FE004870479003002033
:1004100001491820ABBEFEE726000200704700002D
:10042000F0B50E4C0023DE00A65B8E4201D11D46C6
:1004300003E05B1CDBB22A2BF5D300210AE06B182A
:10044000DF0006883F197F68801C3E802A2B03D876
:10045000491CC9B29142F2D30120F0BDF816000840
:100460000149C8607047000000200240F0B50B272A
:1004700006463F04384600F05FF804280FD1084CC8
:1004800020690225284320616661206940210843D4
:100490002061384600F050F82169A9432161F0BD80
:1004A0000020024008490420CA68D20701D0012078
:1004B0007047CA68D20601D502207047C96849074B
:1004C000FBD503207047000000200240F8B5064627
:1004D00000200B273F0400900D46384600F02CF812
:1004E000042815D10B4C2069012108432061358077
:1004F000384600F021F8042806D1B61C280C0096D6
:100500003080384600F018F8216949084900216117
:10051000F8BD00000020024004480169090603D527
:1005200003494160034941607047000000200240D8
:1005300023016745AB89EFCD00B50346FFF7B2FF56
:1005400002E0FFF7AFFF5B1E012803D0002B00D1B4
:10055000052000BD002BF4D1FAE7000070B535206E
:10056000FFF77EFFFFF7D8FF084D00246E142846E2
:10057000FFF77CFF042801D0002070BD641CAD197A
:10058000E4B2332CF3D3012070BD0000003000082A
:1005900070B52148F8B0008800283AD0EC214843D3
:1005A0001E4945181E4968468A790270C97941700A
:1005B00000880446FFF7F2FD19490246083101A8F8
:1005C000FFF70CFE2046FFF7E9FDEC280BD2204692
:1005D000FFF7E4FDC0B201A9FF2202E00A54401C6B
:1005E000C0B2EC28FAD3EC2201A93CA8FFF7BAFD6F
:1005F00000243CAEA00031582846FFF767FF0428CE
:1006000002D0002078B070BD641CE4B22D1D3B2CDC
:10061000F0D30120F6E7000010000020142F00089E
:1006200026020020FEB52F200121400400F0E4FA4C
:100630000121480400F004FB812000020090012504
:10064000684605710024847103264671C47109202F
:100650006946C00600F040F8262000906846057103
:1006600084714671184FC4716946384600F034F8F9
:1006700009202902C00600F079F82021384600F050
:1006800075F8FF200002009068460571847146717C
:10069000C47169460D4800F01FF8042000906846B8
:1006A000057184714671C4716946094800F014F8F7
:1006B000302000906846057184714671C4716946A6
:1006C000044800F009F8FEBD000400480008004896
:1006D000000C004800140048F0B500220124234615
:1006E0000D6893401D409D422AD10D79012D01D006
:1006F000022D12D1876855000326AE40B7438760AC
:100700004E79AE4085682E43866085889D438580FE
:1007100085888B7993401D438580066855000323A7
:10072000AB409E4306600E790768AE403E430660CC
:10073000C6689E43C660CB79AB40C5682B43C36097
:10074000521C102ACBD3F0BD4B07DB0E9A40C908D0
:1007500010B589000818016A0F249C40A14301626A
:10076000016A1143016210BD008A7047018570471C
:100770008161704730B5244900220C880846250A5B
:1007800001231638492D09D1E4B2412C06D14988FC
:100790000C0A502C02D1C9B2452901D0827000E068
:1007A0008370818A194CA14201D1C37000E0C270EC
:1007B0001549091D0C88250A452D17D1E4B2412C95
:1007C00014D14C88250A532D10D1E4B2542C0DD1EC
:1007D0008C88250A462D09D1E4B2492C06D1C98856
:1007E0000C0A522C02D1C9B24D2901D0027100E08D
:1007F00003710189002904D04189002901D0437186
:1008000030BD427130BD00001A000020AAAA0000CD
:10081000F8B5534C2078012806D001215148FFF744
:1008200055FE04287ED092E060780126002803D18E
:10083000FFF794FE012809D06078012805D1A1783E
:100840000520012904D020826682F8BD6670F6E793
:100850004549464B0A6800259A420BD9012080F38E
:100860001088BFF34F8F0D6042494148C860BFF305
:100870004F8FFEE7E2780221012A01D02182F8BDE4
:100880002279012A02D020826182F8BD6079012894
:10089000FBD104202082A671A0896189884245D8B5
:1008A000E1898842F1D034490A78012A3ED10D709D
:1008B000E081FFF76DFE314F3149012805D0002856
:1008C00017D00878012814D030E008780028F8D133
:1008D0002C4E2A48318800F0C7FD694608803088D0
:1008E00009783A181170694649785170801C82B2B3
:1008F00016E0E079401CE071E5810D703E709020BB
:1009000078700320B87001461C4800F0ADFD6946C0
:1009100008801A480978C170694649780171052232
:10092000164900E00DE0184800F01EF9A089618921
:100930008842AAD106202082A5711448257005603E
:10094000F8BD01210920C903C006FFF70FFF0F48BA
:100950000F4900688842F3D900F01CF8F8BD000088
:100960000400002000FC00084000002010270000C8
:100970000400FA0500ED00E037000020900100209F
:10098000360000203A000020004400403C000020D7
:10099000B80B00000849094A03C9012302405B075C
:1009A0009A4207D1012282F3108880F30888044814
:1009B0000160084770470000003000080000FE2F6B
:1009C00000000020F0B587B000256846424C057352
:1009D0002078012806D141487D210068090188421C
:1009E00002D9257007B0F0BDA088801E81B23C48B6
:1009F00000F03AFD694608803949A288384E8A18C5
:100A0000921E137869460B7152784A712570A58041
:100A100031780129E6D169468A880121032790426D
:100A200003D068460773A17008E07078032805D0EA
:100A3000062803D0102809D0684601732948007899
:100A40000028684608D00089E080CBE702AA03A905
:100A5000254800F07FFCF1E7007B002825D03278A4
:100A600069460A74727880210A4369464A74887418
:100A70000F813A4604A91C48FFF7B0FB6946098973
:100A8000194800F0F1FC69460880174A088909787E
:100A900012181170694649785170801C82B212494F
:100AA000124800F061F8A5709CE7694609890E4874
:100AB00000F0DAFC694608800B4A088909781218A8
:100AC0001170694649785170801C82B20649074806
:100AD00000F04AF886E700003400002040000020C3
:100AE000780000200A00002090010020004400400F
:100AF000F8B5184F184D3946284600F040FB01263E
:100B0000164C00280ED0284600F0BEFB0146144AC1
:100B1000A0881154401CA0803946284600F019FBDB
:100B20006670F8BD1021284600F022FB002802D094
:100B30006078012804D01021284600F008FBF8BD99
:100B40001021284600F003FB267000200549607044
:100B50000860F8BD05010500004400403400002095
:100B60007800002040000020F8B50E4E0D460746E4
:100B7000144620213046FFF7FBFD0CE0297838466B
:100B800000F086FB4021384600F0F2FA0028F9D048
:100B9000641EA4B26D1C002CF0D120213046FFF75A
:100BA000E5FDF8BD0004004830B5837801210278E6
:100BB000002B15D094080E4BA400E418236892076C
:100BC000D50EFF22AA40934342789207120EAA4004
:100BD0001A4322600078C006C00E8140054804E038
:100BE000D006C00E814003488030016030BD000057
:100BF00000E400E000E100E0044A0029516901D06E
:100C0000014300E081435161704700000010024041
:100C1000044A0029D16901D0014300E08143D16138
:100C20007047000000100240044A0029116901D0F9
:100C3000014300E081431161704700000010024051
:100C4000044A0029916901D0014300E08143916188
:100C50007047000000100240044A0029D16801D00A
:100C6000014300E08143D160704700000010024062
:100C7000F8B5564D0446686800210C22544E1040C9
:100C800005D0042803D0082803D00C281AD02660E9
:100C90001AE06968686803228902D2030F0F1040C6
:100CA000BF1C00280AD0E86A0107090F3046491C1A
:100CB000FFF7D5FA78430146216005E045483946FB
:100CC0004143F9E7444820606868444F0006000F3C
:100CD0003B5C20680246DA4062606B685B055B0F34
:100CE000FB5CDA40A2602B6BDB0501D43C4B05E0DA
:100CF0006B685B0401D4530800E09308E3602B6B3E
:100D00005F06384B03D4374F1237276100E0236169
:100D10002F6BFF0601D4666100E060612F6BBF0797
:100D20000ED02F6BBF07BF0F012F0BD02F6BBF074C
:100D3000BF0F022F08D02F6BFF43BF0706D006E07E
:100D4000A26104E0A06102E0A36100E0A6612F6B54
:100D5000BF03BF0F0FD02F6BBF03BF0F012F0CD0EE
:100D60002F6BBF03BF0F022F09D02F6BBF03BF0F25
:100D7000032F06D006E0E26104E0E06102E0E361F7
:100D800000E0E6612F6B3F03BF0F0FD02A6B120309
:100D9000920F012A0CD0286B0003800F022809D083
:100DA000286B0003800F032806D006E0226204E0CF
:100DB000206202E0236200E02662286B000602D473
:100DC00005486062F8BD6162F8BD00000010024095
:100DD00000127A0000093D00006CDC02480000208F
:100DE000809FD500008000001CB5002122480191A1
:100DF0000091026801231B041A4302605B00052274
:100E0000120304681C400094019C641C0194009C23
:100E1000002C02D1019C9442F3D10268920328D5A0
:100E200001210091154A112111604168416041681A
:100E3000416041687F22D2039143416041681122A1
:100E4000120411434160016801221206114301603E
:100E500001688901FCD541688908890041604168C1
:100E600002221143416041680907890F0229FAD122
:100E70001CBD00911CBD000000100240002002407B
:100E800010B5144801680122114301604168124AFB
:100E9000114041600168114A11400160016801225E
:100EA00092049143016041683F22120491434160E2
:100EB000C16A09090901C162016BFF2254329143E1
:100EC0000163416B49084900416300218160FFF7DC
:100ED0008BFF10BD001002400CB8FF08FFFFF6FEAC
:100EE0001FB51520694608730220487301208873D6
:100EF00003A8FFF759FE114C204600F067F868463A
:100F000000F018F963200190FF20E0306946088066
:100F100000220A814A808A72204600F0D1F801211D
:100F2000204600F043F801221146204600F0C0F8A8
:100F30000121204600F040F81FBD000000440140A0
:100F4000F8B5184C0121204600F0A6F8002803D07F
:100F50000121204600F02DF8134C7D25A0680126C4
:100F6000401C0927ED00F603FF06A060A84203D24B
:100F700031463846FFF7FCFBA068A84203D931464A
:100F80003846FFF7F3FB7D21A0680901884201D9AB
:100F90000020A0602068401C20606068401C6060E9
:100FA000F8BD0000004401403C000020C94301821C
:100FB0007047C943018270470029018802D001228D
:100FC000114301E049084900018070472A4910B5E2
:100FD000884202D10121C4143AE0012189078842E4
:100FE00006D101210846FFF71FFE0021012008E07D
:100FF0002249884208D101210220FFF715FE002175
:101000000220FFF711FE10BD1D49884206D10121C3
:101010001020FFF709FE00211020F2E7194988424D
:1010200006D101212020FFF7FFFD00212020E8E765
:101030001549884207D1841501212046FFF7F4FDA8
:1010400000212046DDE71149884209D101210C0425
:101050002046FFF701FE00212046FFF7FDFD10BDF1
:101060000B49884202D101214C04F1E70949884229
:10107000F5D101218C04EBE7002C01400004004075
:1010800000100040001400400020004000400140DB
:1010900000440140004801400246138A0020928922
:1010A0000B400A40002B02D0002A00D001207047DC
:1010B000002A828901D00A4300E08A438281704776
:1010C00010B50288144B984206D00124A407A04210
:1010D00002D0124CA04203D17024A2434C88224378
:1010E0000F4CA04203D00F4C22400C8922430280B7
:1010F0004A68C2620A880285984208D00A4A904229
:1011000005D00A4A904202D0094A904201D1897A18
:1011100001860121818210BD002C014000040040A5
:1011200000100040FFFC000000400140004401406E
:10113000004801400021C943416000210180018134
:1011400041808172704710B5FFF7D2FC10BD01627B
:1011500070470A0C01219140016270470029016823
:1011600002D00122114301E04908490001607047A3
:101170000246D26900200A4200D00120704730B5F3
:101180000A04130E0122144600258C40012B0ED0B8
:10119000022B0ED08368090C2340C0698A4010409E
:1011A000002B02D0002800D00125284630BD03685E
:1011B000F1E74368EFE710B50B041C0E01238B40E9
:1011C000022C02D0032C02D002E0001D00E0083007
:1011D0000168002A01D0194300E09943016010BD65
:1011E00030B5044600688BB00D46400840002060D2
:1011F0006068032109038843A9680143616020688E
:101200001C49EA680840696811432A69024311438E
:101210002160A06803210902884369690143A16034
:101220006846FFF725FD1448844201D106980AE07C
:101230001248844201D1079805E01148844201D147
:10124000089800E0029821680904296800D5400048
:10125000FFF705F82A6852088A4200D8401C216826
:10126000090404D50107074A490F10400843A0812B
:101270000BB030BDF3E9FFFF0038014000440040EF
:1012800000480040F0FF0000808CC005C00D704792
:10129000C905C90D01857047F1B501214C048AB01B
:1012A0002046FFF7A9FC01212046FFF7B1FC0927E2
:1012B000FF06012202213846FFF746FA01220321E8
:1012C0003846FFF741FA0221684601710321417156
:1012D000002484710125C5710C26694638460096A4
:1012E000FFF7FAF91C2168460172042141728572E8
:1012F00002A8FFF759FC0A980494059406940894F0
:10130000114C039003A907962046FFF769FF0121BE
:101310002046FFF723FF01220C492046FFF74BFF31
:1013200001220B492046FFF746FF40212046FFF7E8
:101330000EFF10212046FFF70AFF20212046FFF76D
:1013400006FF0BB0F0BD00000044004005010500A1
:1013500004010400F7B53F48072700783C4C3F03E1
:1013600082B016460D4600280BD16088FEF718FFA4
:10137000B84204D1A088FEF713FF022801D0042050
:1013800014E0354800780128608812D0FEF708FF85
:10139000B8420AD36088FEF703FF0746A088FEF72D
:1013A000FFFE2E493818884207D90220287005B060
:1013B000F0BDFEF7F5FEB842F7D300202870608834
:1013C000FEF7EEFE80B20090A088FEF7E9FE85B23F
:1013D0006804020C2048328000781D49204F012803
:1013E00005D03846C91DFEF7F9FE002421E01C484F
:1013F000C91D6430FEF7F2FE194815490838CA794C
:101400000272097A41723888FEF7CAFE38800122DA
:1014100013480099FFF704F812490120C8700FE043
:101420000F486700C05BFEF7BBFE0D49641CC85344
:10143000A4B2AC42F4D32A4609480099FEF7F0FF63
:10144000062203490298FEF7C9FE06203080AEE767
:1014500078000020060000200A000020297000000B
:10146000C20100203400002070B504460B48002360
:101470000B4D0FE0227850400022C60702D04008F2
:10148000684000E04008521C92B2082AF5D35B1C69
:101490009BB2641C8B42EDD370BD0000FFFF0000C7
:1014A00001A000001148124902680120022A01D05F
:1014B000012A17D00870FFF7B5F8FFF711FD4B2090
:1014C000C001FFF7E9FE00F04FF801210920C90330
:1014D000C006FFF74DF9FFF74DF9FFF773FAFFF775
:1014E00097F9F8E7FFF756FAE5E7000000FC000877
:1014F0000400002001E0401E80B20028FBD17047AC
:1015000070B5154C20212046FFF730F910212046F8
:10151000FFF72EF90420FFF7EDFF104CA08AFF2102
:10152000C0B209024018A082002020600C4D0421A6
:101530002846FFF71DF90420FFF7DCFF2046FFF7E0
:1015400013F90848206004212846FFF70FF904200A
:10155000FFF7D0FF002070BD0014004800080048CD
:10156000000400480000555570B500201D4C202394
:1015700014220021424312195354491CC9B21429A0
:10158000FAD3401CC0B20428F2D30021382000F066
:1015900067F80F20FFF7AEFF0021382000F060F859
:1015A0000F20FFF7A7FF0021382000F059F80F2087
:1015B000FFF7A0FF00240C4DFFF7A2FF0028FBD18E
:1015C000285D002100F04CF8641CE4B2042CF3D335
:1015D00006A314220021012000F076F800F012F892
:1015E00070BD00003E030020481800082020202085
:1015F000557064617461696E672E2E2E2020202044
:1016000000000000F8B50E4F002414210D480025FD
:1016100061430E18385D4019C0B200F015F8FFF7AD
:101620006FFF0028FBD1705D012100F019F86D1CDF
:10163000EDB2142DEED3641CE4B2042CE5D3F8BD56
:101640004C1800083E03002010B50446FFF758FF71
:101650000028FBD180202043002100F001F810BDBC
:1016600070B5164D0446002904D020212846FFF706
:101670007FF803E020212846FFF778F8102128465C
:10168000FFF774F84620FFF735FF0D4D042128467B
:10169000FFF76EF85A20FFF72DFF0A48818A2202D1
:1016A000C9B2114381825A20FFF724FF0421284642
:1016B000FFF75CF84620FFF71DFF70BD00140048DF
:1016C000000400480008004810B5042810D2142473
:1016D0006043084C00198A1803E04454491CC9B2FD
:1016E0005B1C142904D28A4202D91C78002CF4D144
:1016F00010BD00003E030020007000001A00002012
:10170000017000001C000020027000003200002068
:10171000037000003200002004700000320000203E
:101720000570000032000020067000001400002048
:10173000077000001600002008700000260000203E
:1017400009700000180000200A7000001E00002030
:101750000B700000200000200C7000002200002010
:101760000D700000240000200E70000028000020F2
:101770000F700000320000201070000032000020C6
:10178000117000003200002012700000580000208C
:10179000137000005A000020147000005C0000204C
:1017A000157000005E000020167000006000002030
:1017B0001770000062000020187000006400002014
:1017C00019700000660000201A70000068000020F8
:1017D0001B7000006A0000201C7000006C000020DC
:1017E0001D7000006E0000201E70000070000020C0
:1017F0001F700000720000202070000074000020A4
:101800002170000076000020227000002A000020D5
:10181000237000002C000020247000002E00002007
:101820002570000030000020267000000C00002011
:10183000277000000E00002028700000100000201B
:1018400000000000000000003808060C004014549E
:101850007018000800000020580000000401000873
:10186000C81800085800002098090000200100084E
:101870000000000000000000000000000000000068
:101880000000000000000000000000000000000058
:101890000000000000000000000000000000000048
:1018A0000000000000000000000000000000000038
:1018B000000000000000000000000000010203041E
:0818C0000102030406070809F8
:04000005080000C12E
:00000001FF
